{
  "contractName": "ArcheTokenCrowdsale",
  "abi": [
    {
      "constant": true,
      "inputs": [],
      "name": "hasClosed",
      "outputs": [
        {
          "name": "",
          "type": "bool"
        }
      ],
      "payable": false,
      "stateMutability": "view",
      "type": "function"
    },
    {
      "constant": true,
      "inputs": [],
      "name": "rate",
      "outputs": [
        {
          "name": "",
          "type": "uint256"
        }
      ],
      "payable": false,
      "stateMutability": "view",
      "type": "function"
    },
    {
      "constant": true,
      "inputs": [],
      "name": "cap",
      "outputs": [
        {
          "name": "",
          "type": "uint256"
        }
      ],
      "payable": false,
      "stateMutability": "view",
      "type": "function"
    },
    {
      "constant": true,
      "inputs": [],
      "name": "goal",
      "outputs": [
        {
          "name": "",
          "type": "uint256"
        }
      ],
      "payable": false,
      "stateMutability": "view",
      "type": "function"
    },
    {
      "constant": true,
      "inputs": [],
      "name": "weiRaised",
      "outputs": [
        {
          "name": "",
          "type": "uint256"
        }
      ],
      "payable": false,
      "stateMutability": "view",
      "type": "function"
    },
    {
      "constant": true,
      "inputs": [
        {
          "name": "",
          "type": "address"
        }
      ],
      "name": "contributions",
      "outputs": [
        {
          "name": "",
          "type": "uint256"
        }
      ],
      "payable": false,
      "stateMutability": "view",
      "type": "function"
    },
    {
      "constant": true,
      "inputs": [],
      "name": "isOpen",
      "outputs": [
        {
          "name": "",
          "type": "bool"
        }
      ],
      "payable": false,
      "stateMutability": "view",
      "type": "function"
    },
    {
      "constant": false,
      "inputs": [
        {
          "name": "beneficiary",
          "type": "address"
        }
      ],
      "name": "withdrawTokens",
      "outputs": [],
      "payable": false,
      "stateMutability": "nonpayable",
      "type": "function"
    },
    {
      "constant": true,
      "inputs": [],
      "name": "closingTime",
      "outputs": [
        {
          "name": "",
          "type": "uint256"
        }
      ],
      "payable": false,
      "stateMutability": "view",
      "type": "function"
    },
    {
      "constant": false,
      "inputs": [],
      "name": "finalize",
      "outputs": [],
      "payable": false,
      "stateMutability": "nonpayable",
      "type": "function"
    },
    {
      "constant": true,
      "inputs": [],
      "name": "capReached",
      "outputs": [
        {
          "name": "",
          "type": "bool"
        }
      ],
      "payable": false,
      "stateMutability": "view",
      "type": "function"
    },
    {
      "constant": true,
      "inputs": [],
      "name": "wallet",
      "outputs": [
        {
          "name": "",
          "type": "address"
        }
      ],
      "payable": false,
      "stateMutability": "view",
      "type": "function"
    },
    {
      "constant": true,
      "inputs": [
        {
          "name": "account",
          "type": "address"
        }
      ],
      "name": "balanceOf",
      "outputs": [
        {
          "name": "",
          "type": "uint256"
        }
      ],
      "payable": false,
      "stateMutability": "view",
      "type": "function"
    },
    {
      "constant": true,
      "inputs": [],
      "name": "goalReached",
      "outputs": [
        {
          "name": "",
          "type": "bool"
        }
      ],
      "payable": false,
      "stateMutability": "view",
      "type": "function"
    },
    {
      "constant": true,
      "inputs": [],
      "name": "investorMinCap",
      "outputs": [
        {
          "name": "",
          "type": "uint256"
        }
      ],
      "payable": false,
      "stateMutability": "view",
      "type": "function"
    },
    {
      "constant": true,
      "inputs": [],
      "name": "finalized",
      "outputs": [
        {
          "name": "",
          "type": "bool"
        }
      ],
      "payable": false,
      "stateMutability": "view",
      "type": "function"
    },
    {
      "constant": true,
      "inputs": [],
      "name": "openingTime",
      "outputs": [
        {
          "name": "",
          "type": "uint256"
        }
      ],
      "payable": false,
      "stateMutability": "view",
      "type": "function"
    },
    {
      "constant": false,
      "inputs": [
        {
          "name": "refundee",
          "type": "address"
        }
      ],
      "name": "claimRefund",
      "outputs": [],
      "payable": false,
      "stateMutability": "nonpayable",
      "type": "function"
    },
    {
      "constant": false,
      "inputs": [
        {
          "name": "beneficiary",
          "type": "address"
        }
      ],
      "name": "buyTokens",
      "outputs": [],
      "payable": true,
      "stateMutability": "payable",
      "type": "function"
    },
    {
      "constant": true,
      "inputs": [],
      "name": "investorHardCap",
      "outputs": [
        {
          "name": "",
          "type": "uint256"
        }
      ],
      "payable": false,
      "stateMutability": "view",
      "type": "function"
    },
    {
      "constant": true,
      "inputs": [],
      "name": "token",
      "outputs": [
        {
          "name": "",
          "type": "address"
        }
      ],
      "payable": false,
      "stateMutability": "view",
      "type": "function"
    },
    {
      "inputs": [
        {
          "name": "_rate",
          "type": "uint256"
        },
        {
          "name": "_wallet",
          "type": "address"
        },
        {
          "name": "_token",
          "type": "address"
        },
        {
          "name": "_cap",
          "type": "uint256"
        },
        {
          "name": "_openingTime",
          "type": "uint256"
        },
        {
          "name": "_closingTime",
          "type": "uint256"
        },
        {
          "name": "_goal",
          "type": "uint256"
        }
      ],
      "payable": false,
      "stateMutability": "nonpayable",
      "type": "constructor"
    },
    {
      "payable": true,
      "stateMutability": "payable",
      "type": "fallback"
    },
    {
      "anonymous": false,
      "inputs": [],
      "name": "CrowdsaleFinalized",
      "type": "event"
    },
    {
      "anonymous": false,
      "inputs": [
        {
          "indexed": false,
          "name": "prevClosingTime",
          "type": "uint256"
        },
        {
          "indexed": false,
          "name": "newClosingTime",
          "type": "uint256"
        }
      ],
      "name": "TimedCrowdsaleExtended",
      "type": "event"
    },
    {
      "anonymous": false,
      "inputs": [
        {
          "indexed": true,
          "name": "purchaser",
          "type": "address"
        },
        {
          "indexed": true,
          "name": "beneficiary",
          "type": "address"
        },
        {
          "indexed": false,
          "name": "value",
          "type": "uint256"
        },
        {
          "indexed": false,
          "name": "amount",
          "type": "uint256"
        }
      ],
      "name": "TokensPurchased",
      "type": "event"
    },
    {
      "constant": true,
      "inputs": [
        {
          "name": "_beneficiary",
          "type": "address"
        }
      ],
      "name": "getUserContribution",
      "outputs": [
        {
          "name": "",
          "type": "uint256"
        }
      ],
      "payable": false,
      "stateMutability": "view",
      "type": "function"
    }
  ],
  "bytecode": "0x608060405266071afd498d0000600c55674563918244f40000600d553480156200002857600080fd5b5060405160e08062003e6d833981018060405260e08110156200004a57600080fd5b8101908080519060200190929190805190602001909291908051906020019092919080519060200190929190805190602001909291908051906020019092919080519060200190929190505050808383868a8a8a60016000806101000a81548160ff02191690831515021790555060008311151562000131576040517f08c379a00000000000000000000000000000000000000000000000000000000081526004018080602001828103825260148152602001807f43726f776473616c653a2072617465206973203000000000000000000000000081525060200191505060405180910390fd5b600073ffffffffffffffffffffffffffffffffffffffff168273ffffffffffffffffffffffffffffffffffffffff1614151515620001bb576040517f08c379a000000000000000000000000000000000000000000000000000000000815260040180806020018281038252602581526020018062003e486025913960400191505060405180910390fd5b600073ffffffffffffffffffffffffffffffffffffffff168173ffffffffffffffffffffffffffffffffffffffff161415151562000245576040517f08c379a000000000000000000000000000000000000000000000000000000000815260040180806020018281038252602481526020018062003df86024913960400191505060405180910390fd5b8260028190555081600160006101000a81548173ffffffffffffffffffffffffffffffffffffffff021916908373ffffffffffffffffffffffffffffffffffffffff16021790555080600060016101000a81548173ffffffffffffffffffffffffffffffffffffffff021916908373ffffffffffffffffffffffffffffffffffffffff1602179055505050506000811115156200034a576040517f08c379a00000000000000000000000000000000000000000000000000000000081526004018080602001828103825260198152602001807f43617070656443726f776473616c653a2063617020697320300000000000000081525060200191505060405180910390fd5b8060048190555050428210151515620003af576040517f08c379a000000000000000000000000000000000000000000000000000000000815260040180806020018281038252603381526020018062003d8e6033913960400191505060405180910390fd5b81811115156200040b576040517f08c379a000000000000000000000000000000000000000000000000000000000815260040180806020018281038252603781526020018062003dc16037913960400191505060405180910390fd5b816005819055508060068190555050506000600760006101000a81548160ff021916908315150217905550600081111515620004af576040517f08c379a000000000000000000000000000000000000000000000000000000000815260040180806020018281038252601e8152602001807f526566756e6461626c6543726f776473616c653a20676f616c2069732030000081525060200191505060405180910390fd5b620004bf6200063f60201b60201c565b604051620004cd9062000669565b808273ffffffffffffffffffffffffffffffffffffffff1673ffffffffffffffffffffffffffffffffffffffff168152602001915050604051809103906000f08015801562000520573d6000803e3d6000fd5b50600960006101000a81548173ffffffffffffffffffffffffffffffffffffffff021916908373ffffffffffffffffffffffffffffffffffffffff1602179055508060088190555050604051620005779062000677565b604051809103906000f08015801562000594573d6000803e3d6000fd5b50600b60006101000a81548173ffffffffffffffffffffffffffffffffffffffff021916908373ffffffffffffffffffffffffffffffffffffffff16021790555083811115151562000632576040517f08c379a000000000000000000000000000000000000000000000000000000000815260040180806020018281038252602c81526020018062003e1c602c913960400191505060405180910390fd5b5050505050505062000685565b6000600160009054906101000a900473ffffffffffffffffffffffffffffffffffffffff16905090565b61167480620020fd83390190565b61061d806200377183390190565b611a6880620006956000396000f3fe6080604052600436106101355760003560e01c8063521eb273116100ab578063b7a8807c1161006f578063b7a8807c146104bd578063bb8b2b47146104e8578063bffa55d51461054d578063ec8ac4d81461059e578063ed5db874146105e2578063fc0c546a1461060d57610135565b8063521eb2731461037857806370a08231146103cf5780637d3d652214610434578063b25d7f5414610463578063b3f05b971461048e57610135565b806342e94c90116100fd57806342e94c901461022257806347535d7b1461028757806349df728c146102b65780634b6753bc146103075780634bb278f3146103325780634f9359451461034957610135565b80631515bc2b146101475780632c4e722e14610176578063355274ea146101a157806340193883146101cc5780634042b66f146101f7575b610145610140610664565b61066c565b005b34801561015357600080fd5b5061015c6107f9565b604051808215151515815260200191505060405180910390f35b34801561018257600080fd5b5061018b610805565b6040518082815260200191505060405180910390f35b3480156101ad57600080fd5b506101b661080f565b6040518082815260200191505060405180910390f35b3480156101d857600080fd5b506101e1610819565b6040518082815260200191505060405180910390f35b34801561020357600080fd5b5061020c610823565b6040518082815260200191505060405180910390f35b34801561022e57600080fd5b506102716004803603602081101561024557600080fd5b81019080803573ffffffffffffffffffffffffffffffffffffffff16906020019092919050505061082d565b6040518082815260200191505060405180910390f35b34801561029357600080fd5b5061029c610845565b604051808215151515815260200191505060405180910390f35b3480156102c257600080fd5b50610305600480360360208110156102d957600080fd5b81019080803573ffffffffffffffffffffffffffffffffffffffff169060200190929190505050610860565b005b34801561031357600080fd5b5061031c61092a565b6040518082815260200191505060405180910390f35b34801561033e57600080fd5b50610347610934565b005b34801561035557600080fd5b5061035e610a69565b604051808215151515815260200191505060405180910390f35b34801561038457600080fd5b5061038d610a7d565b604051808273ffffffffffffffffffffffffffffffffffffffff1673ffffffffffffffffffffffffffffffffffffffff16815260200191505060405180910390f35b3480156103db57600080fd5b5061041e600480360360208110156103f257600080fd5b81019080803573ffffffffffffffffffffffffffffffffffffffff169060200190929190505050610aa7565b6040518082815260200191505060405180910390f35b34801561044057600080fd5b50610449610af0565b604051808215151515815260200191505060405180910390f35b34801561046f57600080fd5b50610478610b04565b6040518082815260200191505060405180910390f35b34801561049a57600080fd5b506104a3610b0a565b604051808215151515815260200191505060405180910390f35b3480156104c957600080fd5b506104d2610b21565b6040518082815260200191505060405180910390f35b3480156104f457600080fd5b506105376004803603602081101561050b57600080fd5b81019080803573ffffffffffffffffffffffffffffffffffffffff169060200190929190505050610b2b565b6040518082815260200191505060405180910390f35b34801561055957600080fd5b5061059c6004803603602081101561057057600080fd5b81019080803573ffffffffffffffffffffffffffffffffffffffff169060200190929190505050610b74565b005b6105e0600480360360208110156105b457600080fd5b81019080803573ffffffffffffffffffffffffffffffffffffffff16906020019092919050505061066c565b005b3480156105ee57600080fd5b506105f7610cef565b6040518082815260200191505060405180910390f35b34801561061957600080fd5b50610622610cf5565b604051808273ffffffffffffffffffffffffffffffffffffffff1673ffffffffffffffffffffffffffffffffffffffff16815260200191505060405180910390f35b600033905090565b6000809054906101000a900460ff1615156106ef576040517f08c379a000000000000000000000000000000000000000000000000000000000815260040180806020018281038252601f8152602001807f5265656e7472616e637947756172643a207265656e7472616e742063616c6c0081525060200191505060405180910390fd5b60008060006101000a81548160ff02191690831515021790555060003490506107188282610d1e565b600061072382610e11565b905061073a82600354610e2f90919063ffffffff16565b60038190555061074a8382610eb9565b8273ffffffffffffffffffffffffffffffffffffffff16610769610664565b73ffffffffffffffffffffffffffffffffffffffff167f6faf93231a456e552dbc9961f58d9713ee4f2e69d15f1975b050ef0911053a7b8484604051808381526020018281526020019250505060405180910390a36107c88383610f7e565b6107d0611021565b6107da83836110e4565b505060016000806101000a81548160ff02191690831515021790555050565b60006006544211905090565b6000600254905090565b6000600454905090565b6000600854905090565b6000600354905090565b600e6020528060005260406000206000915090505481565b6000600554421015801561085b57506006544211155b905090565b610868610b0a565b15156108bf576040517f08c379a000000000000000000000000000000000000000000000000000000000815260040180806020018281038252602e8152602001806118d0602e913960400191505060405180910390fd5b6108c7610af0565b151561091e576040517f08c379a00000000000000000000000000000000000000000000000000000000081526004018080602001828103825260318152602001806118fe6031913960400191505060405180910390fd5b610927816110e8565b50565b6000600654905090565b600760009054906101000a900460ff1615151561099c576040517f08c379a00000000000000000000000000000000000000000000000000000000081526004018080602001828103825260278152602001806119886027913960400191505060405180910390fd5b6109a46107f9565b1515610a18576040517f08c379a00000000000000000000000000000000000000000000000000000000081526004018080602001828103825260208152602001807f46696e616c697a61626c6543726f776473616c653a206e6f7420636c6f73656481525060200191505060405180910390fd5b6001600760006101000a81548160ff021916908315150217905550610a3b61132b565b7f9270cc390c096600a1c17c44345a1ba689fafd99d97487b10cfccf86cf73183660405160405180910390a1565b6000600454610a76610823565b1015905090565b6000600160009054906101000a900473ffffffffffffffffffffffffffffffffffffffff16905090565b6000600a60008373ffffffffffffffffffffffffffffffffffffffff1673ffffffffffffffffffffffffffffffffffffffff168152602001908152602001600020549050919050565b6000600854610afd610823565b1015905090565b600c5481565b6000600760009054906101000a900460ff16905090565b6000600554905090565b6000600e60008373ffffffffffffffffffffffffffffffffffffffff1673ffffffffffffffffffffffffffffffffffffffff168152602001908152602001600020549050919050565b610b7c610b0a565b1515610bd3576040517f08c379a0000000000000000000000000000000000000000000000000000000008152600401808060200182810382526022815260200180611a1b6022913960400191505060405180910390fd5b610bdb610af0565b151515610c33576040517f08c379a00000000000000000000000000000000000000000000000000000000081526004018080602001828103825260218152602001806119af6021913960400191505060405180910390fd5b600960009054906101000a900473ffffffffffffffffffffffffffffffffffffffff1673ffffffffffffffffffffffffffffffffffffffff166351cff8d9826040518263ffffffff1660e01b8152600401808273ffffffffffffffffffffffffffffffffffffffff1673ffffffffffffffffffffffffffffffffffffffff168152602001915050600060405180830381600087803b158015610cd457600080fd5b505af1158015610ce8573d6000803e3d6000fd5b5050505050565b600d5481565b60008060019054906101000a900473ffffffffffffffffffffffffffffffffffffffff16905090565b610d2882826114ce565b6000600e60008473ffffffffffffffffffffffffffffffffffffffff1673ffffffffffffffffffffffffffffffffffffffff1681526020019081526020016000205490506000610d818383610e2f90919063ffffffff16565b9050600c548110158015610d975750600d548111155b1515610e0b576040517f08c379a00000000000000000000000000000000000000000000000000000000081526004018080602001828103825260158152602001807f436170204572726f723a204d696e206f72206d6178000000000000000000000081525060200191505060405180910390fd5b50505050565b6000610e286002548361155890919063ffffffff16565b9050919050565b6000808284019050838110151515610eaf576040517f08c379a000000000000000000000000000000000000000000000000000000000815260040180806020018281038252601b8152602001807f536166654d6174683a206164646974696f6e206f766572666c6f77000000000081525060200191505060405180910390fd5b8091505092915050565b610f0b81600a60008573ffffffffffffffffffffffffffffffffffffffff1673ffffffffffffffffffffffffffffffffffffffff16815260200190815260200160002054610e2f90919063ffffffff16565b600a60008473ffffffffffffffffffffffffffffffffffffffff1673ffffffffffffffffffffffffffffffffffffffff16815260200190815260200160002081905550610f7a600b60009054906101000a900473ffffffffffffffffffffffffffffffffffffffff16826115e2565b5050565b610f888282611723565b610fda81600e60008573ffffffffffffffffffffffffffffffffffffffff1673ffffffffffffffffffffffffffffffffffffffff16815260200190815260200160002054610e2f90919063ffffffff16565b600e60008473ffffffffffffffffffffffffffffffffffffffff1673ffffffffffffffffffffffffffffffffffffffff168152602001908152602001600020819055505050565b600960009054906101000a900473ffffffffffffffffffffffffffffffffffffffff1673ffffffffffffffffffffffffffffffffffffffff1663f340fa0134611068610664565b6040518363ffffffff1660e01b8152600401808273ffffffffffffffffffffffffffffffffffffffff1673ffffffffffffffffffffffffffffffffffffffff1681526020019150506000604051808303818588803b1580156110c957600080fd5b505af11580156110dd573d6000803e3d6000fd5b5050505050565b5050565b6110f06107f9565b1515611147576040517f08c379a00000000000000000000000000000000000000000000000000000000081526004018080602001828103825260218152602001806119fa6021913960400191505060405180910390fd5b6000600a60008373ffffffffffffffffffffffffffffffffffffffff1673ffffffffffffffffffffffffffffffffffffffff1681526020019081526020016000205490506000811115156111e6576040517f08c379a000000000000000000000000000000000000000000000000000000000815260040180806020018281038252603881526020018061192f6038913960400191505060405180910390fd5b6000600a60008473ffffffffffffffffffffffffffffffffffffffff1673ffffffffffffffffffffffffffffffffffffffff16815260200190815260200160002081905550600b60009054906101000a900473ffffffffffffffffffffffffffffffffffffffff1673ffffffffffffffffffffffffffffffffffffffff1663beabacc8611271610cf5565b84846040518463ffffffff1660e01b8152600401808473ffffffffffffffffffffffffffffffffffffffff1673ffffffffffffffffffffffffffffffffffffffff1681526020018373ffffffffffffffffffffffffffffffffffffffff1673ffffffffffffffffffffffffffffffffffffffff1681526020018281526020019350505050600060405180830381600087803b15801561130f57600080fd5b505af1158015611323573d6000803e3d6000fd5b505050505050565b611333610af0565b1561144157600960009054906101000a900473ffffffffffffffffffffffffffffffffffffffff1673ffffffffffffffffffffffffffffffffffffffff166343d726d66040518163ffffffff1660e01b8152600401600060405180830381600087803b1580156113a257600080fd5b505af11580156113b6573d6000803e3d6000fd5b50505050600960009054906101000a900473ffffffffffffffffffffffffffffffffffffffff1673ffffffffffffffffffffffffffffffffffffffff16639af6549a6040518163ffffffff1660e01b8152600401600060405180830381600087803b15801561142457600080fd5b505af1158015611438573d6000803e3d6000fd5b505050506114c4565b600960009054906101000a900473ffffffffffffffffffffffffffffffffffffffff1673ffffffffffffffffffffffffffffffffffffffff16638c52dc416040518163ffffffff1660e01b8152600401600060405180830381600087803b1580156114ab57600080fd5b505af11580156114bf573d6000803e3d6000fd5b505050505b6114cc611727565b565b6114d6610845565b151561154a576040517f08c379a00000000000000000000000000000000000000000000000000000000081526004018080602001828103825260188152602001807f54696d656443726f776473616c653a206e6f74206f70656e000000000000000081525060200191505060405180910390fd5b6115548282611729565b5050565b60008083141561156b57600090506115dc565b6000828402905082848281151561157e57fe5b041415156115d7576040517f08c379a00000000000000000000000000000000000000000000000000000000081526004018080602001828103825260218152602001806119676021913960400191505060405180910390fd5b809150505b92915050565b6115ea610cf5565b73ffffffffffffffffffffffffffffffffffffffff166340c10f1983836040518363ffffffff1660e01b8152600401808373ffffffffffffffffffffffffffffffffffffffff1673ffffffffffffffffffffffffffffffffffffffff16815260200182815260200192505050602060405180830381600087803b15801561167057600080fd5b505af1158015611684573d6000803e3d6000fd5b505050506040513d602081101561169a57600080fd5b8101908080519060200190929190505050151561171f576040517f08c379a000000000000000000000000000000000000000000000000000000000815260040180806020018281038252601f8152602001807f4d696e74656443726f776473616c653a206d696e74696e67206661696c65640081525060200191505060405180910390fd5b5050565b5050565b565b61173382826117ca565b60045461175082611742610823565b610e2f90919063ffffffff16565b111515156117c6576040517f08c379a000000000000000000000000000000000000000000000000000000000815260040180806020018281038252601d8152602001807f43617070656443726f776473616c653a2063617020657863656564656400000081525060200191505060405180910390fd5b5050565b600073ffffffffffffffffffffffffffffffffffffffff168273ffffffffffffffffffffffffffffffffffffffff1614151515611852576040517f08c379a000000000000000000000000000000000000000000000000000000000815260040180806020018281038252602a8152602001806119d0602a913960400191505060405180910390fd5b600081141515156118cb576040517f08c379a00000000000000000000000000000000000000000000000000000000081526004018080602001828103825260198152602001807f43726f776473616c653a20776569416d6f756e7420697320300000000000000081525060200191505060405180910390fd5b505056fe526566756e6461626c65506f737444656c697665727943726f776473616c653a206e6f742066696e616c697a6564526566756e6461626c65506f737444656c697665727943726f776473616c653a20676f616c206e6f742072656163686564506f737444656c697665727943726f776473616c653a2062656e6566696369617279206973206e6f742064756520616e7920746f6b656e73536166654d6174683a206d756c7469706c69636174696f6e206f766572666c6f7746696e616c697a61626c6543726f776473616c653a20616c72656164792066696e616c697a6564526566756e6461626c6543726f776473616c653a20676f616c207265616368656443726f776473616c653a2062656e656669636961727920697320746865207a65726f2061646472657373506f737444656c697665727943726f776473616c653a206e6f7420636c6f736564526566756e6461626c6543726f776473616c653a206e6f742066696e616c697a6564a165627a7a72305820ae57db1ada66a8e6580061ba15bba8afbae2b143a6a7289429fbca17a896895e0029608060405234801561001057600080fd5b506040516020806116748339810180604052602081101561003057600080fd5b810190808051906020019092919050505060006100516101ea60201b60201c565b9050806000806101000a81548173ffffffffffffffffffffffffffffffffffffffff021916908373ffffffffffffffffffffffffffffffffffffffff1602179055507f4101e71e974f68df5e9730cc223280b41654676bbb052cdcc735c3337e64d2d981604051808273ffffffffffffffffffffffffffffffffffffffff1673ffffffffffffffffffffffffffffffffffffffff16815260200191505060405180910390a150600073ffffffffffffffffffffffffffffffffffffffff168173ffffffffffffffffffffffffffffffffffffffff161415151561017f576040517f08c379a000000000000000000000000000000000000000000000000000000000815260040180806020018281038252602d815260200180611647602d913960400191505060405180910390fd5b80600260016101000a81548173ffffffffffffffffffffffffffffffffffffffff021916908373ffffffffffffffffffffffffffffffffffffffff1602179055506000600260006101000a81548160ff021916908360028111156101df57fe5b0217905550506101f2565b600033905090565b611446806102016000396000f3fe6080604052600436106100a75760003560e01c80638c52dc41116100645780638c52dc41146102765780639af6549a1461028d578063c19d93fb146102a4578063c6dbdf61146102dd578063e3a9db1a14610334578063f340fa0114610399576100a7565b80632348238c146100ac57806338af3eed146100fd57806343d726d61461015457806351cff8d91461016b5780636809691a146101bc578063685ca1941461020d575b600080fd5b3480156100b857600080fd5b506100fb600480360360208110156100cf57600080fd5b81019080803573ffffffffffffffffffffffffffffffffffffffff1690602001909291905050506103dd565b005b34801561010957600080fd5b506101126105b9565b604051808273ffffffffffffffffffffffffffffffffffffffff1673ffffffffffffffffffffffffffffffffffffffff16815260200191505060405180910390f35b34801561016057600080fd5b506101696105e3565b005b34801561017757600080fd5b506101ba6004803603602081101561018e57600080fd5b81019080803573ffffffffffffffffffffffffffffffffffffffff169060200190929190505050610762565b005b3480156101c857600080fd5b5061020b600480360360208110156101df57600080fd5b81019080803573ffffffffffffffffffffffffffffffffffffffff1690602001909291905050506107ce565b005b34801561021957600080fd5b5061025c6004803603602081101561023057600080fd5b81019080803573ffffffffffffffffffffffffffffffffffffffff169060200190929190505050610980565b604051808215151515815260200191505060405180910390f35b34801561028257600080fd5b5061028b6109b2565b005b34801561029957600080fd5b506102a2610b32565b005b3480156102b057600080fd5b506102b9610c33565b604051808260028111156102c957fe5b60ff16815260200191505060405180910390f35b3480156102e957600080fd5b506102f2610c4a565b604051808273ffffffffffffffffffffffffffffffffffffffff1673ffffffffffffffffffffffffffffffffffffffff16815260200191505060405180910390f35b34801561034057600080fd5b506103836004803603602081101561035757600080fd5b81019080803573ffffffffffffffffffffffffffffffffffffffff169060200190929190505050610c73565b6040518082815260200191505060405180910390f35b6103db600480360360208110156103af57600080fd5b81019080803573ffffffffffffffffffffffffffffffffffffffff169060200190929190505050610cbc565b005b6000809054906101000a900473ffffffffffffffffffffffffffffffffffffffff1673ffffffffffffffffffffffffffffffffffffffff1661041d610d48565b73ffffffffffffffffffffffffffffffffffffffff1614151561048b576040517f08c379a000000000000000000000000000000000000000000000000000000000815260040180806020018281038252602c8152602001806113bd602c913960400191505060405180910390fd5b600073ffffffffffffffffffffffffffffffffffffffff168173ffffffffffffffffffffffffffffffffffffffff1614151515610513576040517f08c379a000000000000000000000000000000000000000000000000000000000815260040180806020018281038252602a815260200180611393602a913960400191505060405180910390fd5b806000806101000a81548173ffffffffffffffffffffffffffffffffffffffff021916908373ffffffffffffffffffffffffffffffffffffffff1602179055507f4101e71e974f68df5e9730cc223280b41654676bbb052cdcc735c3337e64d2d981604051808273ffffffffffffffffffffffffffffffffffffffff1673ffffffffffffffffffffffffffffffffffffffff16815260200191505060405180910390a150565b6000600260019054906101000a900473ffffffffffffffffffffffffffffffffffffffff16905090565b6000809054906101000a900473ffffffffffffffffffffffffffffffffffffffff1673ffffffffffffffffffffffffffffffffffffffff16610623610d48565b73ffffffffffffffffffffffffffffffffffffffff16141515610691576040517f08c379a000000000000000000000000000000000000000000000000000000000815260040180806020018281038252602c8152602001806113bd602c913960400191505060405180910390fd5b6000600281111561069e57fe5b600260009054906101000a900460ff1660028111156106b957fe5b141515610711576040517f08c379a000000000000000000000000000000000000000000000000000000000815260040180806020018281038252602981526020018061136a6029913960400191505060405180910390fd5b60028060006101000a81548160ff0219169083600281111561072f57fe5b02179055507f088672c3a6e342f7cd94a65ba63b79df24a8973927b4d05d803c44bbf787d12f60405160405180910390a1565b61076b81610980565b15156107c2576040517f08c379a00000000000000000000000000000000000000000000000000000000081526004018080602001828103825260338152602001806113376033913960400191505060405180910390fd5b6107cb81610d50565b50565b6000809054906101000a900473ffffffffffffffffffffffffffffffffffffffff1673ffffffffffffffffffffffffffffffffffffffff1661080e610d48565b73ffffffffffffffffffffffffffffffffffffffff1614151561087c576040517f08c379a000000000000000000000000000000000000000000000000000000000815260040180806020018281038252602c8152602001806113bd602c913960400191505060405180910390fd5b6000600160008373ffffffffffffffffffffffffffffffffffffffff1673ffffffffffffffffffffffffffffffffffffffff1681526020019081526020016000205490506000600160008473ffffffffffffffffffffffffffffffffffffffff1673ffffffffffffffffffffffffffffffffffffffff1681526020019081526020016000208190555061092e818373ffffffffffffffffffffffffffffffffffffffff16610f2090919063ffffffff16565b8173ffffffffffffffffffffffffffffffffffffffff167f7084f5476618d8e60b11ef0d7d3f06914655adb8793e28ff7f018d4c76d505d5826040518082815260200191505060405180910390a25050565b60006001600281111561098f57fe5b600260009054906101000a900460ff1660028111156109aa57fe5b149050919050565b6000809054906101000a900473ffffffffffffffffffffffffffffffffffffffff1673ffffffffffffffffffffffffffffffffffffffff166109f2610d48565b73ffffffffffffffffffffffffffffffffffffffff16141515610a60576040517f08c379a000000000000000000000000000000000000000000000000000000000815260040180806020018281038252602c8152602001806113bd602c913960400191505060405180910390fd5b60006002811115610a6d57fe5b600260009054906101000a900460ff166002811115610a8857fe5b141515610ae0576040517f08c379a00000000000000000000000000000000000000000000000000000000081526004018080602001828103825260328152602001806113e96032913960400191505060405180910390fd5b6001600260006101000a81548160ff02191690836002811115610aff57fe5b02179055507f599d8e5a83cffb867d051598c4d70e805d59802d8081c1c7d6dffc5b6aca2b8960405160405180910390a1565b600280811115610b3e57fe5b600260009054906101000a900460ff166002811115610b5957fe5b141515610bb1576040517f08c379a000000000000000000000000000000000000000000000000000000000815260040180806020018281038252603881526020018061129a6038913960400191505060405180910390fd5b600260019054906101000a900473ffffffffffffffffffffffffffffffffffffffff1673ffffffffffffffffffffffffffffffffffffffff166108fc3073ffffffffffffffffffffffffffffffffffffffff16319081150290604051600060405180830381858888f19350505050158015610c30573d6000803e3d6000fd5b50565b6000600260009054906101000a900460ff16905090565b60008060009054906101000a900473ffffffffffffffffffffffffffffffffffffffff16905090565b6000600160008373ffffffffffffffffffffffffffffffffffffffff1673ffffffffffffffffffffffffffffffffffffffff168152602001908152602001600020549050919050565b60006002811115610cc957fe5b600260009054906101000a900460ff166002811115610ce457fe5b141515610d3c576040517f08c379a000000000000000000000000000000000000000000000000000000000815260040180806020018281038252602b81526020018061130c602b913960400191505060405180910390fd5b610d4581611075565b50565b600033905090565b6000809054906101000a900473ffffffffffffffffffffffffffffffffffffffff1673ffffffffffffffffffffffffffffffffffffffff16610d90610d48565b73ffffffffffffffffffffffffffffffffffffffff16141515610dfe576040517f08c379a000000000000000000000000000000000000000000000000000000000815260040180806020018281038252602c8152602001806113bd602c913960400191505060405180910390fd5b6000600160008373ffffffffffffffffffffffffffffffffffffffff1673ffffffffffffffffffffffffffffffffffffffff1681526020019081526020016000205490506000600160008473ffffffffffffffffffffffffffffffffffffffff1673ffffffffffffffffffffffffffffffffffffffff168152602001908152602001600020819055508173ffffffffffffffffffffffffffffffffffffffff166108fc829081150290604051600060405180830381858888f19350505050158015610ecd573d6000803e3d6000fd5b508173ffffffffffffffffffffffffffffffffffffffff167f7084f5476618d8e60b11ef0d7d3f06914655adb8793e28ff7f018d4c76d505d5826040518082815260200191505060405180910390a25050565b803073ffffffffffffffffffffffffffffffffffffffff163110151515610faf576040517f08c379a000000000000000000000000000000000000000000000000000000000815260040180806020018281038252601d8152602001807f416464726573733a20696e73756666696369656e742062616c616e636500000081525060200191505060405180910390fd5b60008273ffffffffffffffffffffffffffffffffffffffff168260405180600001905060006040518083038185875af1925050503d806000811461100f576040519150601f19603f3d011682016040523d82523d6000602084013e611014565b606091505b50509050801515611070576040517f08c379a000000000000000000000000000000000000000000000000000000000815260040180806020018281038252603a8152602001806112d2603a913960400191505060405180910390fd5b505050565b6000809054906101000a900473ffffffffffffffffffffffffffffffffffffffff1673ffffffffffffffffffffffffffffffffffffffff166110b5610d48565b73ffffffffffffffffffffffffffffffffffffffff16141515611123576040517f08c379a000000000000000000000000000000000000000000000000000000000815260040180806020018281038252602c8152602001806113bd602c913960400191505060405180910390fd5b600034905061117a81600160008573ffffffffffffffffffffffffffffffffffffffff1673ffffffffffffffffffffffffffffffffffffffff1681526020019081526020016000205461120f90919063ffffffff16565b600160008473ffffffffffffffffffffffffffffffffffffffff1673ffffffffffffffffffffffffffffffffffffffff168152602001908152602001600020819055508173ffffffffffffffffffffffffffffffffffffffff167f2da466a7b24304f47e87fa2e1e5a81b9831ce54fec19055ce277ca2f39ba42c4826040518082815260200191505060405180910390a25050565b600080828401905083811015151561128f576040517f08c379a000000000000000000000000000000000000000000000000000000000815260040180806020018281038252601b8152602001807f536166654d6174683a206164646974696f6e206f766572666c6f77000000000081525060200191505060405180910390fd5b809150509291505056fe526566756e64457363726f773a2062656e65666963696172792063616e206f6e6c79207769746864726177207768696c6520636c6f736564416464726573733a20756e61626c6520746f2073656e642076616c75652c20726563697069656e74206d61792068617665207265766572746564526566756e64457363726f773a2063616e206f6e6c79206465706f736974207768696c6520616374697665436f6e646974696f6e616c457363726f773a207061796565206973206e6f7420616c6c6f77656420746f207769746864726177526566756e64457363726f773a2063616e206f6e6c7920636c6f7365207768696c65206163746976655365636f6e646172793a206e6577207072696d61727920697320746865207a65726f20616464726573735365636f6e646172793a2063616c6c6572206973206e6f7420746865207072696d617279206163636f756e74526566756e64457363726f773a2063616e206f6e6c7920656e61626c6520726566756e6473207768696c6520616374697665a165627a7a72305820b9fe712b3d18809cd47e757700383bae3c9442c06750e7c47901543073cb8dee0029526566756e64457363726f773a2062656e656669636961727920697320746865207a65726f2061646472657373608060405260006100146100bf60201b60201c565b9050806000806101000a81548173ffffffffffffffffffffffffffffffffffffffff021916908373ffffffffffffffffffffffffffffffffffffffff1602179055507f4101e71e974f68df5e9730cc223280b41654676bbb052cdcc735c3337e64d2d981604051808273ffffffffffffffffffffffffffffffffffffffff1673ffffffffffffffffffffffffffffffffffffffff16815260200191505060405180910390a1506100c7565b600033905090565b610547806100d66000396000f3fe608060405234801561001057600080fd5b50600436106100415760003560e01c80632348238c14610046578063beabacc81461008a578063c6dbdf61146100f8575b600080fd5b6100886004803603602081101561005c57600080fd5b81019080803573ffffffffffffffffffffffffffffffffffffffff169060200190929190505050610142565b005b6100f6600480360360608110156100a057600080fd5b81019080803573ffffffffffffffffffffffffffffffffffffffff169060200190929190803573ffffffffffffffffffffffffffffffffffffffff1690602001909291908035906020019092919050505061031e565b005b610100610494565b604051808273ffffffffffffffffffffffffffffffffffffffff1673ffffffffffffffffffffffffffffffffffffffff16815260200191505060405180910390f35b6000809054906101000a900473ffffffffffffffffffffffffffffffffffffffff1673ffffffffffffffffffffffffffffffffffffffff166101826104bd565b73ffffffffffffffffffffffffffffffffffffffff161415156101f0576040517f08c379a000000000000000000000000000000000000000000000000000000000815260040180806020018281038252602c8152602001806104f0602c913960400191505060405180910390fd5b600073ffffffffffffffffffffffffffffffffffffffff168173ffffffffffffffffffffffffffffffffffffffff1614151515610278576040517f08c379a000000000000000000000000000000000000000000000000000000000815260040180806020018281038252602a8152602001806104c6602a913960400191505060405180910390fd5b806000806101000a81548173ffffffffffffffffffffffffffffffffffffffff021916908373ffffffffffffffffffffffffffffffffffffffff1602179055507f4101e71e974f68df5e9730cc223280b41654676bbb052cdcc735c3337e64d2d981604051808273ffffffffffffffffffffffffffffffffffffffff1673ffffffffffffffffffffffffffffffffffffffff16815260200191505060405180910390a150565b6000809054906101000a900473ffffffffffffffffffffffffffffffffffffffff1673ffffffffffffffffffffffffffffffffffffffff1661035e6104bd565b73ffffffffffffffffffffffffffffffffffffffff161415156103cc576040517f08c379a000000000000000000000000000000000000000000000000000000000815260040180806020018281038252602c8152602001806104f0602c913960400191505060405180910390fd5b8273ffffffffffffffffffffffffffffffffffffffff1663a9059cbb83836040518363ffffffff1660e01b8152600401808373ffffffffffffffffffffffffffffffffffffffff1673ffffffffffffffffffffffffffffffffffffffff16815260200182815260200192505050602060405180830381600087803b15801561045357600080fd5b505af1158015610467573d6000803e3d6000fd5b505050506040513d602081101561047d57600080fd5b810190808051906020019092919050505050505050565b60008060009054906101000a900473ffffffffffffffffffffffffffffffffffffffff16905090565b60003390509056fe5365636f6e646172793a206e6577207072696d61727920697320746865207a65726f20616464726573735365636f6e646172793a2063616c6c6572206973206e6f7420746865207072696d617279206163636f756e74a165627a7a723058200b43a2bc310f1bd17d40df1ede0667b513a6c4906aedebb1b0fe0e9aea17a7b4002954696d656443726f776473616c653a206f70656e696e672074696d65206973206265666f72652063757272656e742074696d6554696d656443726f776473616c653a206f70656e696e672074696d65206973206e6f74206265666f726520636c6f73696e672074696d6543726f776473616c653a20746f6b656e20697320746865207a65726f2061646472657373417263686543726f776473616c653a20476f616c2073686f756c64206265206c657373207468616e2063617043726f776473616c653a2077616c6c657420697320746865207a65726f2061646472657373",
  "source": "pragma solidity >=0.5.5;\n\nimport \"@openzeppelin/contracts/crowdsale/Crowdsale.sol\";\nimport \"@openzeppelin/contracts/crowdsale/emission/MintedCrowdsale.sol\";\nimport \"@openzeppelin/contracts/crowdsale/validation/CappedCrowdsale.sol\";\nimport \"@openzeppelin/contracts/crowdsale/validation/TimedCrowdsale.sol\";\nimport \"@openzeppelin/contracts/crowdsale/distribution/RefundableCrowdsale.sol\";\nimport \"@openzeppelin/contracts/crowdsale/distribution/RefundablePostDeliveryCrowdsale.sol\";\nimport \"@openzeppelin/contracts/token/ERC20/ERC20.sol\";\n\ncontract ArcheTokenCrowdsale is Crowdsale,MintedCrowdsale,CappedCrowdsale,TimedCrowdsale,RefundableCrowdsale,RefundablePostDeliveryCrowdsale {\n    \n    uint public investorMinCap = 2000000000000000; //0.002 ETH \n    uint public investorHardCap = 5000000000000000000; //5 ETH\n    \n    mapping(address => uint) public contributions;\n    constructor(uint _rate,address payable _wallet, ERC20 _token, uint256 _cap,uint256 _openingTime,uint256 _closingTime,uint256 _goal) \n    Crowdsale(_rate,_wallet,_token) \n    CappedCrowdsale(_cap)\n    TimedCrowdsale(_openingTime,_closingTime)\n    RefundableCrowdsale(_goal)\n    RefundablePostDeliveryCrowdsale()\n    public{\n        require(_goal <= _cap,\"ArcheCrowdsale: Goal should be less than cap\");\n    }\n    \n    function getUserContribution(address _beneficiary) public view returns(uint) {\n        return contributions[_beneficiary];\n    }\n    function  _preValidatePurchase(address _beneficiary, uint256 _weiAmount) internal view{\n        super._preValidatePurchase(_beneficiary,_weiAmount);\n        uint existingContribution = contributions[_beneficiary];\n        uint newContribution = existingContribution.add(_weiAmount);\n        \n        require(newContribution >= investorMinCap && newContribution <= investorHardCap,\"Cap Error: Min or max\");\n        \n    }\n\n    function _updatePurchasingState(address _beneficiary, uint256 _weiAmount) internal{\n        super._updatePurchasingState(_beneficiary,_weiAmount);\n        contributions[_beneficiary] = contributions[_beneficiary].add(_weiAmount);\n    }\n    \n    \n}",
  "sourcePath": "/home/orhanors/Desktop/ETHEREUM/token/contracts/ArcheTokenCrowdsale.sol",
  "compiler": {
    "name": "solc",
    "version": "0.5.5+commit.47a71e8f.Emscripten.clang"
  },
  "schemaVersion": "3.4.1",
  "updatedAt": "2021-07-19T09:49:25.970Z",
  "devdoc": {
    "methods": {
      "balanceOf(address)": {
        "return": "the balance of an account."
      },
      "buyTokens(address)": {
        "details": "low level token purchase ***DO NOT OVERRIDE*** This function has a non-reentrancy guard, so it shouldn't be called by another `nonReentrant` function.",
        "params": {
          "beneficiary": "Recipient of the token purchase"
        }
      },
      "cap()": {
        "return": "the cap of the crowdsale."
      },
      "capReached()": {
        "details": "Checks whether the cap has been reached.",
        "return": "Whether the cap was reached"
      },
      "claimRefund(address)": {
        "details": "Investors can claim refunds here if crowdsale is unsuccessful.",
        "params": {
          "refundee": "Whose refund will be claimed."
        }
      },
      "closingTime()": {
        "return": "the crowdsale closing time."
      },
      "finalize()": {
        "details": "Must be called after crowdsale ends, to do some extra finalization work. Calls the contract's finalization function."
      },
      "finalized()": {
        "return": "true if the crowdsale is finalized, false otherwise."
      },
      "goal()": {
        "return": "minimum amount of funds to be raised in wei."
      },
      "goalReached()": {
        "details": "Checks whether funding goal was reached.",
        "return": "Whether funding goal was reached"
      },
      "hasClosed()": {
        "details": "Checks whether the period in which the crowdsale is open has already elapsed.",
        "return": "Whether crowdsale period has elapsed"
      },
      "isOpen()": {
        "return": "true if the crowdsale is open, false otherwise."
      },
      "openingTime()": {
        "return": "the crowdsale opening time."
      },
      "rate()": {
        "return": "the number of token units a buyer gets per wei."
      },
      "token()": {
        "return": "the token being sold."
      },
      "wallet()": {
        "return": "the address where funds are collected."
      },
      "weiRaised()": {
        "return": "the amount of wei raised."
      }
    }
  },
  "userdoc": {
    "methods": {}
  }
}